S00B00004D70752E73726563E7
S11300000C942F020C944C020C944C020C944C0251
S11300100C944C020C944C020C944C020C944C0224
S11300200C944C020C944C020C944C020C944C0214
S11300300C944C020C944C020C944C020C944C0204
S11300400C944C020C944C020C944C020C944C02F4
S11300500C944C020C944C020C944C020C944C02E4
S11300600C944C020C944C020C944C020C944C02D4
S11300700C944C020C944C020C944C020C944C02C4
S11300800C944C020C944C020C944C020C944C02B4
S11300900C944C020C944C020C944C020C944C02A4
S11300A00C944C020C944C020C944C020C944C0294
S11300B00C944C0200407A10F35A00A0724E1809B6
S11300C00010A5D4E80000E87648170000E40B54BB
S11300D0020000CA9A3B000000E1F505000080968A
S11300E09800000040420F000000A08601000000BC
S11300F0102700000000E803000000006400000076
S113010000000A00000000000100000000002C763E
S1130110D888DC674F0823DFC1DFAE59E1B1B79659
S1130120E5E3E453C63AE651997696E8E6C28426B6
S1130130EB898C9B62ED407C6FFCEFBC9C9F40F292
S1130140BAA56FA5F490055A2AF75C936B6CF9670E
S11301506DC11BFCE0E40D47FEF520E6B500D0EDD3
S1130160902E0300943577050080841E080000203B
S11301704E0A000000C80C333333330F986E1283D9
S11301801141EF8D2114893BE65516CFFEE6DB18AD
S1130190D1844B381BF77C1D901DA4BBE424203272
S11301A084725E228100C9F124ECA1E53D27FC5F45
S11301B0DC60E461C462F663D664B065DF66B5678B
S11301C03F683F69FFFF0000000000000000002FAF
S11301D0000000000700070000147F147F140024AF
S11301E02A7F2A12006264081323003649552250DC
S11301F000000503000000001C2241000000412211
S11302001C000014083E08140008083E08080000FA
S113021000A06000000808080808000060600000F2
S1130220002010080402003E5149453E0000427F70
S11302304000004261514946002141454B310018BC
S113024014127F10002745454539003C4A4949307E
S11302500001710905030036494949360006494938
S1130260291E000036360000000056360000000843
S11302701422410000141414141400004122140820
S113028000020151090600324959513E007C121105
S1130290127C007F49494936003E41414122007F9A
S11302A04141221C007F49494941007F0909090154
S11302B0003E4149497A007F0808087F0000417FD9
S11302C04100002040413F01007F08142241007F8B
S11302D040404040007F020C027F007F0408107FF2
S11302E0003E4141413E007F09090906003E41515B
S11302F0215E007F09192946004649494931000118
S1130300017F0101003F4040403F001F2040201F6B
S1130310003F4038403F006314081463000708702E
S1130320080700615149454300007F4141000055E1
S11303302A552A55000041417F00000402010204AD
S1130340004040404040000001020400002054549A
S11303505478007F484444380038444444200038EA
S11303604444487F00385454541800087E0901025C
S11303700018A4A4A47C007F080404780000447D31
S11303804000004080847D00007F1028440000006D
S1130390417F4000007C04180478007C0804047841
S11303A000384444443800FC24242418001824242D
S11303B018FC007C08040408004854545420000429
S11303C03F444020003C4040207C001C2040201C36
S11303D0003C4030403C004428102844001CA0A0AD
S11303E0A07C004464544C440000087741000000A1
S11303F000630000000041770800000804080804B6
S1130400003A4040207A003D4040403D0021545491
S11304105479007D1211127D003944444439003D61
S11304204242423D000205020000007E014955732C
S1130430007C1010081C003048204830005C620228
S1130440625CAE2000B0C8001040813FA1A6A83F66
S1130450A4D300D5F0D922DA12DB208D14001124A4
S11304601FBECFEFD8E0DEBFCDBF11E0A0E0B1E00A
S1130470E2EBFEE102C005900D92A631B107D9F777
S113048021E0A6E1B1E001C01D92A433B207E1F777
S11304900E9483060C94570F0C9400001092B9002C
S11304A088E48093B800089594EA9093BC009091F6
S11304B0BC009923E4F79091B900987F983091F4A7
S11304C08093BB0084E88093BC008091BC008823A7
S11304D0E4F78091B900887F883131F0803231F4BB
S11304E082E0089580E0089581E0089583E008950E
S11304F094EA9093BC009091BC009923E4F7909106
S1130500B900987F903191F48093BB0084E8809384
S1130510BC008091BC008823E4F78091B900887FF7
S1130520803431F0803231F482E0089580E008951F
S113053081E0089583E0089584E98093BC0080916C
S1130540BC0084FDFCCF0895CF93C82F84EA809328
S1130550BC008091BC008823E4F78091B900887FB7
S11305608830A1F7C093BB0084E88093BC008091DD
S1130570BC008823E4F78091B900887F883119F0A2
S11305800E949C02E3CFCF9108958093BB0084E83E
S11305908093BC008091BC008823E4F78091B9006B
S11305A0887F883221F0803321F481E0089580E04F
S11305B0089582E0089584EC8093BC008091BC008F
S11305C08823E4F78091BB00089584E88093BC00FD
S11305D08091BC008823E4F78091BB0008950F93B9
S11305E01F93CF93DF938C01D62F88E70E94540288
S11305F080E00E94C502C0E007C0F801EC0FF11DC5
S113060080810E94C502CF5FCD17B8F30E949C027F
S1130610DF91CF911F910F910895EF92FF920F9365
S11306201F93CF93DF937C018B0188E70E945402D0
S113063080E40E94C502C0E0D0E007C0F701EC0FDF
S1130640FD1F80810E94C5022196C017D107B0F317
S11306500E949C02DF91CF911F910F91FF90EF9028
S11306600895CF93DF9300D000D0CDB7DEB78138A3
S113067090F4683080F4E6E1F1E0808361836055B2
S1130680698391E29A838B838FE78C8364E0CE0144
S113069001960E94EF020F900F900F900F90DF9140
S11306A0CF910895982F990F980F892F880F0E9442
S11306B03103089560E080E00E94520308951F937F
S11306C0CF93DF93CDB7DEB7C058D1090FB6F894F6
S11306D0DEBF0FBECDBFFE01319680E8DF011D9263
S11306E08A95E9F710E00BC0612F80E00E94520365
S11306F060E870E0CE0101960E940D031F5F183080
S113070098F30E945A03C058DF4F0FB6F894DEBF27
S11307100FBECDBFDF91CF911F9108951F93CF934B
S1130720DF93CDB7DEB76C970FB6F894DEBF0FBE7C
S1130730CDBF182F0E944E0220E00EC0822F90E001
S1130740FC01EE5BFB4FE491A1E0B0E0AC0FBD1FF8
S1130750A80FB91FEC932F5F2B3180F31C8F6CE132
S1130760CE0101960E94EF020E945F036C960FB6C1
S1130770F894DEBF0FBECDBFDF91CF911F910895D6
S1130780CF93DF9300D0CDB7DEB791E899838A8306
S113079062E0CE0101960E94EF020F900F90DF916C
S11307A0CF910895CF92DF92EF92FF920F931F9310
S11307B0CF93DF93CDB7DEB76C970FB6F894DEBF57
S11307C00FBECDBF893001F118F4883039F052C022
S11307D08A30E9F18D3009F447C04CC006E111E0DC
S11307E0F8018081909100016181891B0E9452036C
S11307F080E20E94D203F80180819091000161811E
S1130800891B0E94520359C18091160190910001E5
S1130810292F30E0220F331F220F331FB901680F35
S1130820711D45E150E0FA01E21BF30B6E177F07DF
S113083040F4990F990F60911701890F0E94520398
S11308403CC16091170185E10E94520336C1809139
S11308501701873008F031C160910001680F809161
S113086016010E94520329C16091170180E00E9481
S1130870520323C1509116015A3708F01EC1803229
S113088008F41BC18052EFEAF1E0E4918E1798F46A
S113089023C0F901EE0FFF1FE255FE4FE491F0E093
S11308A0B097282F30E0E217F30719F4FB01849185
S11308B010C09F5F01C090E0292F30E0F901EE0FD6
S11308C0FF1FBF0161557E4FFB0144914F3F09F764
S11308D08FEF8F3F09F4F1C090910001923009F03D
S11308E0BEC0252F30E0245F3F4F2138310508F08A
S11308F0E4C0F12C4FC06F2D70E0FB01EE0FFF1F21
S113090021E030E02C0F3D1FE20FF31F1586148603
S1130910282F30E0F901EE0FFF1FE20FF31FEE0F57
S1130920FF1FE60FF71FEA53FE4FE49090E02FC03D
S1130930A92FB0E02E2D30E0092E02C03595279561
S11309400A94E2F720FF22C0AA0FBB1F21E030E087
S113095069010A2E02C0CC0CDD1C0A94E2F78B015B
S1130960000F111FE1E0F0E0EC0FFD1FE00FF11F9D
S1130970448555854C295D29119602C0220F331FE9
S1130980AA95E2F7242B352B358724879F5F98306F
S113099078F2F39435E03F1508F0ADCF20E015C0B0
S11309A0822F90E0880F991FE1E0F0E0EC0FFD1F2B
S11309B0E80FF91F348530830196E1E0F0E0EC0F95
S11309C0FD1FE80FF91F30832F5F263048F36CE0DA
S11309D070E0CE0101960E940D03E6E1F1E0818111
S11309E08F54898F81E28A8F80818B8F8FE78C8FE0
S11309F064E0CE0149960E94EF0220E015C0822FE8
S1130A0090E0880F991FE1E0F0E0EC0FFD1FE80F84
S1130A10F91F358530830196E1E0F0E0EC0FFD1F0E
S1130A20E80FF91F30832F5F263048F36CE070E045
S1130A30CE0101960E940D0306E111E0F8018181C7
S1130A408055898F8081845F8B8F64E0CE014996C5
S1130A500E94EF02F8018081845F80832EC0252FDD
S1130A6030E02A5F3F4F2138310538F590E018C057
S1130A70282F30E0492F50E0F901EE0FFF1FE20F5D
S1130A80F31FEE0FFF1FE40FF51FEA53FE4FE4912F
S1130A90A1E0B0E0AC0FBD1FA40FB51FEC939F5FA6
S1130AA0963030F366E070E0CE0101960E940D03AB
S1130AB0E6E1F1E080818A5F80836C960FB6F8945A
S1130AC0DEBF0FBECDBFDF91CF911F910F91FF907D
S1130AD0EF90DF90CF900895809300010895CF9315
S1130AE0DF93EC0103C021960E94D2038881811117
S1130AF0FACFDF91CF9108952FEF82E597E021504F
S1130B0080409040E1F700C0000080ED0E94A40204
S1130B1089E10E94C50287E00E94C5020E949C02EE
S1130B2080ED0E94A4028BE60E94C50281E00E942F
S1130B30C5020E949C0280ED0E94A4028AE10E94E8
S1130B40C50280E00E94C5020E949C0280ED0E94C2
S1130B50A4028CE10E94C50288E10E94C5020E94A1
S1130B609C0280ED0E94A4028BE10E94C50288E1F0
S1130B700E94C5020E949C0280ED0E94A40288E3A8
S1130B800E94C50281E00E94C5020E949C02089551
S1130B9080ED0E94A4028BE30E94C50281ED0E94B5
S1130BA078020895CF93DF930E94C8050E94DB0268
S1130BB0C82FD0E0DC2FCC270E94DB02BE01682BBB
S1130BC0072E000C880B990B0E94D70860932C0108
S1130BD070932D0180932E0190932F010E94DB02CC
S1130BE0C82FD0E0DC2FCC270E94DB02BE01682B8B
S1130BF0072E000C880B990B0E94D70860932401E0
S1130C007093250180932601909327010E94DB02B3
S1130C10C82FD0E0DC2FCC270E94DB02BE01682B5A
S1130C20072E000C880B990B0E94D70860931801BB
S1130C307093190180931A0190931B010E94DB02A7
S1130C40C82FD0E0DC2FCC270E94DB02BE01682B2A
S1130C50072E000C880B990B0E94D7086093200183
S1130C607093210180932201909323010E94DB025F
S1130C70C82FD0E0DC2FCC270E94DB02BE01682BFA
S1130C80072E000C880B990B0E94D70860931C0157
S1130C9070931D0180931E0190931F010E94DB023B
S1130CA0C82FD0E0DC2FCC270E94DB02BE01682BCA
S1130CB0072E000C880B990B0E94D7086093300113
S1130CC07093310180933201909333010E94DB02CF
S1130CD0C82FD0E0DC2FCC270E94E502BE01682B90
S1130CE0072E000C880B990B0E94D70860932801EB
S1130CF07093290180932A0190932B010E949C02F6
S1130D00DF91CF910895CF93DF93CDB7DEB76E9780
S1130D100FB6F894DEBF0FBECDBF0E944E020E94F4
S1130D207C0560E875E280E090E00E94A007E0E8BE
S1130D30F0E08081826A8083E1E8F0E080818B6169
S1130D40808387E893E1909387008093860084B141
S1130D50826084B987B18D7F87B988B1826088B990
S1130D6087B18B7F87B988B1846088B987B1877F61
S1130D7087B988B1886088B98FEA0E948E030E947F
S1130D805F0380E00E94C00361E084E00E9452039C
S1130D9082E00E946C0564E080E00E945203812C92
S1130DA0912C0E94D20520E030E04AEA53E460919D
S1130DB020017091210180912201909123010E94D0
S1130DC0630828EB3EE142E152E40E94F20726E682
S1130DD036E646EE5FE30E948C0920E030E040E016
S1130DE052E40E94F2076B017C015E0125E1A20E30
S1130DF0B11C850122E043E00E941B0A9F928F925E
S1130E00BF92AF9281E091E09F938F9304511109B7
S1130E101F930F930E943B0AC8010E94DB070FB681
S1130E20F894DEBF0FBECDBF20E030E044EB52E4C7
S1130E30C701B6010E94870918163CF48EEA91E0B6
S1130E4090938900809388004DC020E030E04CE806
S1130E5052E4C701B6010E94870918168CF420E0F9
S1130E6030E044EB52E4C701B6010E945E088823D7
S1130E703CF48EE591E0909389008093880032C021
S1130E8020E030E048E452E4C701B6010E9487093B
S1130E9018168CF420E030E04CE852E4C701B601A7
S1130EA00E945E0888233CF48DE191E090938900D0
S1130EB08093880017C020E030E048E452E4C70182
S1130EC0B6010E945E0888236CF488EC90E090934D
S1130ED089008093880006C088EC90E09093890094
S1130EE080938800319BF8CF06C08DE191E0909308
S1130EF0890080938800329BF8CF06C08EE591E08C
S1130F009093890080938800339BF8CF8091880068
S1130F1090918900882E992E0E945F038AE091E0C7
S1130F200E946F05CE0145960E946F059FEF23ED49
S1130F3080E3915020408040E1F700C0000031CFB1
S1130F40E1ECF0E0208128612083E2ECF0E02081F4
S1130F5026602083DC01CB01880F991FAA1FBB1FC9
S1130F60880F991FAA1FBB1F9C01AD01220F331FBD
S1130F70441F551F220F331F441F551F60E074E2A6
S1130F8084EF90E00E94F9098FEF820F8093C400F0
S1130F90DA01C9010197A109B109892F9A2FAB2F51
S1130FA0BB278093C50008958093C6008091C0003C
S1130FB085FFFCCF08950F931F93CF93DF938C018C
S1130FC0C0E0D0E003C00E94D4072196F801EC0FE2
S1130FD0FD1F80818111F7CFDF91CF911F910F9178
S1130FE008955058BB27AA270E9409080C944D095C
S1130FF00E943F0938F00E94460920F039F49F3FCF
S113100019F426F40C943C090EF4E095E7FB0C94D7
S11310103609E92F0E945E0958F3BA17620773076D
S11310208407950720F079F4A6F50C9480090EF452
S1131030E0950B2EBA2FA02D0B01B90190010C01E4
S1131040CA01A0011124FF27591B99F0593F50F4FC
S1131050503E68F11A16F040A22F232F342F442754
S1131060585FF3CF469537952795A795F04053954C
S1131070C9F77EF41F16BA0B620B730B840BBAF01C
S11310809150A1F0FF0FBB1F661F771F881FC2F787
S11310900EC0BA0F621F731F841F48F4879577959B
S11310A06795B795F7959E3F08F0B0CF9395880F55
S11310B008F09927EE0F9795879508950E941209D5
S11310C008F481E008950E9477080C944D090E9469
S11310D0460958F00E943F0940F029F45F3F29F087
S11310E00C94360951110C9481090C943C090E940A
S11310F05E0968F39923B1F3552391F3951B550BBE
S1131100BB27AA2762177307840738F09F5F5F4FD6
S1131110220F331F441FAA1FA9F335D00E2E3AF015
S1131120E0E832D091505040E695001CCAF72BD02D
S1131130FE2F29D0660F771F881FBB1F261737077E
S11311404807AB07B0E809F0BB0B802DBF01FF27B0
S113115093585F4F3AF09E3F510578F00C9436094E
S11311600C9481095F3FE4F3983ED4F38695779518
S11311706795B795F7959F5FC9F7880F911D969569
S1131180879597F90895E1E0660F771F881FBB1FC5
S1131190621773078407BA0720F0621B730B840B72
S11311A0BA0BEE1F88F7E0950895E89409C097FB01
S11311B03EF490958095709561957F4F8F4F9F4F2A
S11311C09923A9F0F92F96E9BB279395F69587956E
S11311D077956795B795F111F8CFFAF4BB0F11F431
S11311E060FF1BC06F5F7F4F8F4F9F4F16C08823D8
S11311F011F096E911C0772321F09EE8872F762F0E
S113120005C0662371F096E8862F70E060E02AF04E
S11312109A95660F771F881FDAF7880F969587953A
S113122097F90895990F0008550FAA0BE0E8FEEF0F
S113123016161706E807F907C0F012161306E40796
S1131240F50798F0621B730B840B950B39F40A268F
S113125061F0232B242B252B21F408950A2609F46D
S1131260A140A6958FEF811D811D089597F99F6771
S113127080E870E060E008959FEF80EC089500241A
S11312800A941616170618060906089500240A94E7
S113129012161306140605060895092E0394000C6D
S11312A011F4882352F0BB0F40F4BF2B11F460FFFC
S11312B004C06F5F7F4F8F4F9F4F089557FD905825
S11312C0440F551F59F05F3F71F04795880F97FB06
S11312D0991F61F09F3F79F08795089512161306C0
S11312E01406551FF2CF4695F1DF08C016161706EF
S11312F01806991FF1CF8695710561050894089524
S1131300E894BB2766277727CB0197F908950E94B5
S1131310120908F48FEF08950E949F090C944D0957
S11313200E943F0938F00E94460920F0952311F0ED
S11313300C9436090C943C0911240C9481090E94E4
S11313405E0970F3959FC1F3950F50E0551F629F9E
S1131350F001729FBB27F00DB11D639FAA27F00D0A
S1131360B11DAA1F649F6627B00DA11D661F829F31
S11313702227B00DA11D621F739FB00DA11D621F16
S1131380839FA00D611D221F749F3327A00D611D33
S1131390231F849F600D211D822F762F6A2F112415
S11313A09F5750409AF0F1F088234AF0EE0FFF1F48
S11313B0BB1F661F771F881F91505040A9F79E3F9F
S11313C0510580F00C9436090C9481095F3FE4F3D5
S11313D0983ED4F3869577956795B795F795E795F5
S11313E09F5FC1F7FE2B880F911D9695879597F9FE
S11313F00895A1E21A2EAA1BBB1BFD010DC0AA1F52
S1131400BB1FEE1FFF1FA217B307E407F50720F069
S1131410A21BB30BE40BF50B661F771F881F991FE4
S11314201A9469F760957095809590959B01AC012D
S1131430BD01CF010895EF920F931F93CF93DF93D4
S1131440E80147FD02C034E001C034E1042E000C81
S1131450550B57FF03C0519541955109E32E022FB7
S1131460242FAE010E943E0CCE01DF91CF911F913B
S11314700F91EF900895AEE0B0E0E1E4FAE00C944F
S11314802E0F0D891E8986E08C831A8309838FEFC2
S11314909FE79E838D83AE01475E5F4F6F89788D92
S11314A0CE0101960E945D0AEF81F885E00FF11FDD
S11314B010822E96E4E00C944A0FABE0B0E0E3E631
S11314C0FAE00C94200F6C017B018A01FC01178265
S11314D01682838181FFCCC1CE0101963C01F601C5
S11314E09381F70193FD859193FF81917F01882377
S11314F009F4BAC1853239F493FD859193FF819142
S11315007F01853229F4B60190E00E94860EE7CF70
S1131510912C212C312CFFE1F315D8F08B3279F08A
S113152038F4803279F08332A1F4232D20611DC078
S11315308D3261F0803369F4232D216016C0832D30
S11315408260382EE32DE4603E2E2AC0F32DF8602D
S11315501DC037FC2DC020ED280F2A3040F08E32FC
S1131560B9F436FC81C1232D2064322E19C036FE15
S113157006C08AE0989E200D1124922E11C0EAE044
S11315802E9E200D1124222EF32DF0623F2E08C032
S11315908C3621F4832D8068382E02C0883641F4BD
S11315A0F70193FD859193FF81917F018111B3CF61
S11315B0982F9F7D9554933028F40C5F1F4F9FE321
S11315C099830DC0833631F0833771F0833509F088
S11315D059C021C0F801808189830E5F1F4F882480
S11315E08394912C530113C02801F2E04F0E511C37
S11315F0F801A080B18036FE03C0692D70E002C0FE
S11316006FEF7FEFC5010E947B0E4C018201F32D29
S1131610FF773F2E16C0280122E0420E511CF8012C
S1131620A080B18036FE03C0692D70E002C06FEF68
S11316307FEFC5010E94700E4C01F32DF0683F2E20
S1131640820133FC1BC0822D90E088169906B0F409
S1131650B60180E290E00E94860E2A94F4CFF50150
S113166037FC859137FE81915F01B60190E00E94BD
S1131670860E21102A9421E0821A91088114910483
S113168071F7E8C0843611F0893641F5F80137FE68
S113169007C060817181828193810C5F1F4F08C0F4
S11316A060817181072E000C880B990B0E5F1F4F10
S11316B0F32DFF763F2E97FF09C090958095709586
S11316C061957F4F8F4F9F4FF0683F2E2AE030E0A7
S11316D0A3010E94C20E882E861845C0853731F4B6
S11316E0232D2F7EB22E2AE030E025C0932D997F42
S11316F0B92E8F36C1F018F4883579F0B5C080372B
S113170019F0883721F0B0C0E92FE061BE2EB4FE95
S11317100DC0FB2DF460BF2E09C034FE0AC0292F72
S11317202660B22E06C028E030E005C020E130E09B
S113173002C020E132E0F801B7FE07C06081718188
S1131740828193810C5F1F4F06C06081718180E0AC
S113175090E00E5F1F4FA3010E94C20E882E8618D0
S1131760FB2DFF773F2E36FE0DC0232D2E7FA22E9C
S1131770891458F434FE0BC032FC09C0832D8E7ECC
S1131780A82E05C0B82CA32C03C0B82C01C0B92CBA
S1131790A4FE0FC0FE01E80DF11D8081803321F409
S11317A09A2D997EA92E09C0A2FE06C0B394B394C3
S11317B004C08A2D867809F0B394A3FC11C0A0FE5E
S11317C006C0B21488F4280C922C9B180EC0B214D4
S11317D060F4B60180E290E00E94860EB394F7CFE5
S11317E0B21418F42B1802C0982C212CA4FE10C09B
S11317F0B60180E390E00E94860EA2FE17C0A1FC11
S113180003C088E790E002C088E590E0B6010CC010
S11318108A2D867859F0A1FE02C08BE201C080E2D5
S1131820A7FC8DE2B60190E00E94860E891438F47C
S1131830B60180E390E00E94860E9A94F7CF8A94D2
S1131840F301E80DF11D8081B60190E00E94860E3F
S11318508110F5CF222009F442CEB60180E290E057
S11318600E94860E2A94F6CFF6018681978102C0E3
S11318708FEF9FEF2B96E2E10C943C0FA9E0B0E0D0
S1131880E4E4FCE00C94260F6A01122FB02E2BE343
S1131890201720F0FF24F394F00E02C02CE3F22E64
S11318A00F2D27E0AE014F5F5F4F0E94980DBC01E2
S11318B04981842F8970813031F0E1FC06C0E0FE5B
S11318C006C090E205C09DE203C09BE201C090E027
S11318D05E2D507143FF3CC0911102C083E001C0F2
S11318E084E0811718F4212F281B01C020E0511136
S11318F00BC0F601822F30E2882319F03193815016
S1131900FBCFC20ED11C20E0992329F0D6019C9371
S1131910F60131966F01C6010396E2FE0AC03EE469
S1131920D6013C9341E411964C93119712963C9343
S113193006C03EE6F601308341E641833283FC0172
S1131940322F40E2332309F442C041933150FACF9D
S113195042FF44C0911102C083E001C084E08117BA
S113196018F4212F281B01C020E051110BC0F601EF
S1131970822F30E2882319F031938150FBCFC20EBD
S1131980D11C20E0992329F0D6019C93F6013196CD
S11319906F01C6010396E2FE0BC039E4D6013C9305
S11319A03EE411963C93119736E412963C9307C09B
S11319B039E6F60130833EE6318336E63283FC01B4
S11319C0322F40E2332319F041933150FBCFFC0115
S11319D0E20FF11D10828EEF9FEFA6C021E030E0F0
S11319E0911102C020E030E0161617061CF4FB012A
S11319F0319602C0E1E0F0E02E0F3F1FBB2021F042
S1131A00EB2DF0E0319602C0E0E0F0E02E0F3F1F36
S1131A10E12FF0E02E173F071CF4121B212F01C009
S1131A2020E08E2D887159F4F601822F30E288234C
S1131A3019F031938150FBCFC20ED11C20E09923C1
S1131A4029F0D6019C93F60131966F0151110BC018
S1131A50F601822F90E3882319F091938150FBCFF4
S1131A60C20ED11C20E00F2D060F9A81342F307145
S1131A7044FF03C0913309F40150101624F40930D3
S1131A8018F008E001C001E0AB0177FF02C040E0BC
S1131A9050E0FB01E41BF50BA1E0B0E0AC0FBD1F6F
S1131AA0EA0FFB1F8EE2A82E4B01801A91080B2D22
S1131AB010E01195019511094F3FBFEF5B0721F429
S1131AC0D601AC9211966D01641775072CF084163B
S1131AD0950614F4818101C080E341505109319687
S1131AE0D60111967D014017510724F0D6018C933D
S1131AF06701E2CF6417750739F4963320F4953300
S1131B0019F4311101C081E3F6018083F701822FBA
S1131B1090E2882319F091938150FBCFF701E20FF3
S1131B20F11D108280E090E02996ECE00C94420FC5
S1131B30283008F027E03327DA01990F311D87FD9B
S1131B40916000966105710539F432602E5F3D9312
S1131B5030E32A95E1F708959F3F30F0803871050E
S1131B60610509F03C5F3C5F3D93913008F080686B
S1131B70911DDF93CF931F930F93FF92EF92192F31
S1131B80987F9695E92F96959695E90FFF27E25F42
S1131B90FE4F99273327EE24FF24A701E701059080
S1131BA00894079428F4360FE71EF81E491F511DA8
S1131BB0660F771F881F991F0694A1F70590079455
S1131BC028F4E70EF81E491F561FC11D770F881F02
S1131BD0991F661F0694A1F70590079428F4F80E40
S1131BE0491F561FC71FD11D880F991F661F771FD6
S1131BF00694A1F70590079420F4490F561FC71FB8
S1131C00D81F990F661F771F881F0694A9F7849120
S1131C101095177041F0D695C79557954795F79449
S1131C20E7941A95C1F7E4EBF0E0689415901591E8
S1131C3035916591959105907FE27395E118F10ACC
S1131C40430B560BC90BD009C0F7E10CF11E431F1F
S1131C50561FC91FD01D7EF4703311F48A95E6CF48
S1131C60E894015030F0080F0AF40027021708F432
S1131C70202F2395022F7A3328F079E37D932A9538
S1131C80E9F710C07D932A9589F606949795679590
S1131C90379517951794E118F10A430B560BC90BA6
S1131CA0D00998F023957E9173957A3308F070E308
S1131CB07C932013B8F77E9170617D9330F0839507
S1131CC071E37D9370E32A95E1F71124EF90FF907F
S1131CD00F911F91CF91DF91992787FD90950895DA
S1131CE0FC010590615070400110D8F780959095E3
S1131CF08E0F9F1F0895FC016150704001900110E8
S1131D00D8F7809590958E0F9F1F08950F931F937A
S1131D10CF93DF93FB01238121FD03C08FEF9FEF5E
S1131D202CC022FF16C04681578124813581421779
S1131D30530744F4A081B1819D012F5F3F4F31834C
S1131D4020838C93268137812F5F3F4F37832683EF
S1131D5014C08B01EC01FB010084F185E02D099591
S1131D60892BE1F6D80116968D919C9117970196CF
S1131D7017969C938E931697CE01DF91CF911F9166
S1131D800F910895FA01AA27283051F1203181F1E9
S1131D90E8946F936E7F6E5F7F4F8F4F9F4FAF4F6F
S1131DA0B1E03ED0B4E03CD0670F781F891F9A1F82
S1131DB0A11D680F791F8A1F911DA11D6A0F711D36
S1131DC0811D911DA11D20D009F468943F912AE042
S1131DD0269F11243019305D3193DEF6CF0108952A
S1131DE0462F4770405D4193B3E00FD0C9F7F6CF5B
S1131DF0462F4F70405D4A3318F0495D31FD405223
S1131E00419302D0A9F7EACFB4E0A69597958795B8
S1131E1077956795BA95C9F7009761057105089597
S1131E209B01AC010A2E0694579547953795279543
S1131E30BA95C9F7620F731F841F951FA01D0895DB
S1131E402F923F924F925F926F927F928F929F92C6
S1131E50AF92BF92CF92DF92EF92FF920F931F93B4
S1131E60CF93DF93CDB7DEB7CA1BDB0B0FB6F89465
S1131E70DEBF0FBECDBF09942A88398848885F84A5
S1131E806E847D848C849B84AA84B984C884DF8016
S1131E90EE80FD800C811B81AA81B981CE0FD11DFA
S1131EA00FB6F894DEBF0FBECDBFED010895F894D0
S1051EB0FFCF5E
S1131EB20125732C2025690D0A00202054656D70BC
S1091EC220200D0A0000BF
S9030000FC
